:020000040800F2
:100000000C270020B904000891010008990100089C
:10001000A1010008A9010008B10100088901000838
:10002000890100088901000889010008B901000858
:10003000C101000889010008C9010008D1010008B8
:10004000D9010008E1010008E9010008F1010008F8
:10005000F901000801020008090200081102000865
:1000600019020008210200082902000831020008D4
:100070003902000841020008490200085102000844
:1000800059020008610200086902000871020008B4
:100090007902000881020008890200089102000824
:1000A00099020008A1020008A9020008B102000894
:1000B000B9020008C1020008C9020008D102000804
:1000C000D9020008E1020008E9020008F102000874
:1000D000F9020008010300080903000811030008E1
:1000E0001903000821030008290300083103000850
:1000F00039030008410300084903000851030008C0
:10010000590300086103000869030008710300082F
:10011000790300088103000889030008910300089F
:1001200099030008A1030008A9030008B10300080F
:10013000B9030008C1030008C9030008D10300087F
:10014000D9030008E1030008E9030008F1030008EF
:10015000F90300080104000809040008110400085C
:1001600019040008210400082904000831040008CB
:10017000390400084104000849040008510400083B
:1001800059040008610400084FF0000000F06CB949
:100190004FF0020000F068B94FF0030000F064B9BE
:1001A0004FF0040000F060B94FF0050000F05CB9BA
:1001B0004FF0060000F058B94FF00B0000F054B9B2
:1001C0004FF00C0000F050B94FF00E0000F04CB9A9
:1001D0004FF00F0000F048B94FF0100000F044B9A4
:1001E0004FF0110000F040B94FF0120000F03CB9A0
:1001F0004FF0130000F038B94FF0140000F034B99C
:100200004FF0150000F030B94FF0160000F02CB997
:100210004FF0170000F028B94FF0180000F024B993
:100220004FF0190000F020B94FF01A0000F01CB98F
:100230004FF01B0000F018B94FF01C0000F014B98B
:100240004FF01D0000F010B94FF01E0000F00CB987
:100250004FF01F0000F008B94FF0200000F004B983
:100260004FF0210000F000B94FF0220000F0FCB880
:100270004FF0230000F0F8B84FF0240000F0F4B87D
:100280004FF0250000F0F0B84FF0260000F0ECB879
:100290004FF0270000F0E8B84FF0280000F0E4B875
:1002A0004FF0290000F0E0B84FF02A0000F0DCB871
:1002B0004FF02B0000F0D8B84FF02C0000F0D4B86D
:1002C0004FF02D0000F0D0B84FF02E0000F0CCB869
:1002D0004FF02F0000F0C8B84FF0300000F0C4B865
:1002E0004FF0310000F0C0B84FF0320000F0BCB861
:1002F0004FF0330000F0B8B84FF0340000F0B4B85D
:100300004FF0350000F0B0B84FF0360000F0ACB858
:100310004FF0370000F0A8B84FF0380000F0A4B854
:100320004FF0390000F0A0B84FF03A0000F09CB850
:100330004FF03B0000F098B84FF03C0000F094B84C
:100340004FF03D0000F090B84FF03E0000F08CB848
:100350004FF03F0000F088B84FF0400000F084B844
:100360004FF0410000F080B84FF0420000F07CB840
:100370004FF0430000F078B84FF0440000F074B83C
:100380004FF0450000F070B84FF0460000F06CB838
:100390004FF0470000F068B84FF0480000F064B834
:1003A0004FF0490000F060B84FF04A0000F05CB830
:1003B0004FF04B0000F058B84FF04C0000F054B82C
:1003C0004FF04D0000F050B84FF04E0000F04CB828
:1003D0004FF04F0000F048B84FF0500000F044B824
:1003E0004FF0510000F040B84FF0520000F03CB820
:1003F0004FF0530000F038B84FF0540000F034B81C
:100400004FF0550000F030B84FF0560000F02CB817
:100410004FF0570000F028B84FF0580000F024B813
:100420004FF0590000F020B84FF05A0000F01CB80F
:100430004FF05B0000F018B84FF05C0000F014B80B
:100440004FF05D0000F010B84FF05E0000F00CB807
:100450004FF05F0000F008B84FF0600000F004B803
:100460004FF0610000F000B86A4602F12002EFF39D
:1004700010832DE9FC0F72B669466C4624F0070222
:10048000954600F0F1FB2146884209D000F1280191
:1004900091E8F00F016821E9F00F90E8FC0F01E00E
:1004A000B1E8FC0F81F30888DFF808E083F31088D7
:1004B00070470000F9FFFFFF08B500F03BF800F0BF
:1004C000D7F900F0E1F8412000F0C6F9144B154AC5
:1004D000934203D2002243F8042BF8E7422000F0B5
:1004E000BBF9114A114B12498B4204D252F8041F36
:1004F00043F8041BF7E7432000F0AEF900F046FB99
:10050000442000F0A9F901F0EDF9462000F0A4F92B
:100510000D2000F0A1F90A2000F09EF901F064FA24
:1005200050080020101F00204CB0010800000020DF
:100530005008002013B53A4A3A48136843F00103C3
:100540001360394B00241C60116821F0847121F084
:100550000111116035490860106820F48020106096
:1005600033480460106840F480301060314A0192D2
:10057000019A002A06DD2A4A1268900302D4019AE1
:10058000013AF4E7019A2C4C002A33DD22682B480B
:1005900042F080522260026842F4804202601A688F
:1005A00022F0F0021A601A6822F4604242F400421B
:1005B0001A601A6822F4E05242F4A0521A60204AEB
:1005C0000A60174A116841F0807111601168890151
:1005D000FCD51C4A40F2056111601A6822F0030242
:1005E00042F002021A601A6802F00C02082AFAD1DC
:1005F00000F034F8144A154B11680B431360144B88
:100600001A681A602268134B1343134A2360136855
:1006100043F4A24343F02103136002B010BD00BFB6
:1006200000380240103000240838024004380240EC
:100630000C3802401482190040380240007000401B
:1006400008544007003C024030380240FF0160007F
:1006500034380240050062104438024008B50548AD
:100660000021012200F0F2FA024B1B689B07FBD528
:1006700008BD00BF7438024002480121002200F08A
:10068000E5BA00BF743802407047C0F30313082B6B
:1006900009D8054A00F00F0052F82320012301B9C0
:1006A0001030834093617047CC7601082DE9F04704
:1006B000C0F30316082E00F2AF80594B53F82650B2
:1006C00000F44023B3F5002F00F00F0709D0B3F575
:1006D000402F08D0A3F58029D9F1000343EB09038B
:1006E00002E0022300E00323EFF3108472B603223A
:1006F0004FEA470E296802FA0EF2D243114003FA7C
:100700000EFC4CEA0101032B29600CD000F44031AF
:10071000B1F5803F0AD0B1F5003F0CBF4FF00208A1
:100720004FF0000804E04FF0000801E04FF001082E
:10073000E96808FA0EF801EA020C48EA0C01022BFB
:10074000E9600CBFC0F303310021072F8BBF4FF0CE
:1007500024084FF02008A7F1080CBC464FEA8C0C87
:1007600058F805A04FF00F0909FA0CF901FA0CF13D
:100770002AEA090903F1FF3C49EA0101BCF1010F32
:1007800048F8051012D800F44061B1F5006F09D0A7
:10079000B1F5406F08D0A1F58068D8F1000141EBB8
:1007A000080104E0022102E0032100E00021D5F865
:1007B000088001FA0EF108EA02021143A960012241
:1007C000BCF1010F696802FA07F203D8870501D569
:1007D0000A4301E021EA0202012B6A6004D1C0F35E
:1007E0000021FFF752FF10E0C3050ED500F00C0703
:1007F0000C4D00F00300795980000F23834021EA5B
:10080000030206FA00F313437B5114F0010F00D1E9
:1008100062B60020BDE8F0876FF01500BDE8F087F4
:10082000CC76010808380140C0B2FFF73FBFC0F3E3
:100830000313082B0CD8074A52F8233000F00F009E
:100840001A69012383401A4214BF01200020704717
:1008500000207047CC760108034B1B681B06FBD5B4
:10086000024B1860704700BF004400400444004041
:1008700008B500214FF40032144800F0E7F914489D
:10088000FFF714FF1348FFF711FF134A13491368CA
:1008900023F47D53136052F8043C23F4BB5323F03C
:1008A0001C0342F8043C0B6823F4E06323F00103CB
:1008B0000B600B4B40F26D11196052F8043C43F48D
:1008C000005343F00C0342F8043C08BD403802409A
:1008D000027C0900037C09001044004014440040DD
:1008E0000844004010B5826C8186D36801F4D0744E
:1008F00023F4D0732343D360826C536901F0010168
:1009000023F001031943516110BD6FF018007047C7
:10091000836A9A6C5068DA8E40EA02420A600022CA
:10092000DA86C0B2704710B5806AEFF3108472B6F1
:10093000838E11B143F0200104E023F4907121F083
:10094000010189B2FFF7CEFF14F0010F00D162B6AA
:1009500010BD836A9B6C1868C0F340107047836AAF
:100960009B6C59607047836A9B6C1868C0F3C01019
:10097000704738B504464FF48075A26C13689BB27B
:100980009906E38607D5A18E880604D5204600F097
:1009900075FF012304E013F00E031CBF536800230E
:1009A000E28E110606D5A28E120603D5204600F06F
:1009B0002DFF0123013D01D0002BDED1002038BDE9
:1009C0000048D6E7000000200048D2E75800002089
:1009D00038B50446806AEFF3108572B6838E41B154
:1009E00043F0800189B2FFF77DFF204600F00EFF43
:1009F00005E023F080010904090CFFF773FF15F0EF
:100A0000010F00D162B638BD10B5846A94F8400079
:100A100000F078FA94F840000021BDE8104001F0A1
:100A2000DFB838B5846A94F84000616D01F0D8F8F9
:100A3000054618B994F8400000F076FA284638BD0B
:100A400038B5846A054600212046FFF74BFFAB6AA4
:100A50000F4A9B6C934206D002F55042934208D154
:100A60000C48202102E00C484FF40031002200F035
:100A7000EDF8A26CD36823F4005323F00C03D36089
:100A8000E06CFFF7D1FE206DBDE83840FFF7CCBE2B
:100A900000440040443802404038024038B5846A7F
:100AA000374AA36C9342054606D002F55042934262
:100AB00008D13448202202E033484FF400320021AC
:100AC00000F0C4F8E06CFFF7F1FD206DFFF7EEFDDC
:100AD000A26C94F83A10136923F47D5309B143F4DE
:100AE00000531361A26CD36823F4BE73D360A26C6D
:100AF000536923F4E06323F001035361AA6AD36BC3
:100B00005908536CB3FBF1F359090133A3EB4113BB
:100B10005B0843EA0113916C8B60906C92F838107B
:100B2000C368012923F4B05302D143F4C06303E046
:100B3000022908BF43F4806392F83950092D02D08E
:100B4000082D02D109B143F48053C360916C92F82F
:100B50003A000B6923F4405308B143F400530B618E
:100B6000926C536923F440735361A26CD36843F4CD
:100B7000005343F00C030020D360A08638BD00BFB3
:100B800000440040443802404038024010B5002480
:100B9000064B53F8240010B10021FFF7A3FE0134E7
:100BA000062CF5D10248BDE8104077E7F076010841
:100BB0000000002030B51149114885B000F0D0FD8B
:100BC0000E49104800F0CCFD68460F4902F06BFC5E
:100BD000002401230D4A52F8241049B1CA783AB9C9
:100BE0005D1C684630338DF8093000F0B9FD2B46A6
:100BF0000134062CEED105B030BD00BF000000204E
:100C0000387701084577010850770108F076010828
:100C100038B505460C48826CD368546903F4D07328
:100C200004F0010400211C43FFF75CFE0A2D02D1F1
:100C30000D20FFF711FEE8B2FFF70EFE0248214635
:100C4000FFF750FE284638BD0000002010B5EFF336
:100C5000108472B6036823EA01010A43026014F0AB
:100C6000010F00D162B610BDF8B50B4C064604204A
:100C70000D4600F099FE30462768256000F065F9C2
:100C80002946304600F0C8FF25682760042000F0A0
:100C900091FE2846F8BD00BF981A002008B5EFF372
:100CA000108372B60449054A032002F041FC04484F
:100CB000CE2100F04BF900BFB27701085B77010845
:100CC000D377010808B5EFF3108372B60449054ADB
:100CD000032002F02DFC0448C62100F037F900BFC4
:100CE000E47701086A770108D377010808B5EFF3C4
:100CF000108372B60449054A032002F019FC044827
:100D0000BE2100F023F900BF097801087B770108B4
:100D1000D377010808B5EFF3108372B6054B064987
:100D20001B68064A032002F003FC0548B62100F0C8
:100D30000DF900BF28ED00E0277801088877010849
:100D4000D377010808B5EFF3108372B6054B064957
:100D50001B68064A032002F0EBFB0548AE2100F0B9
:100D6000F5F800BF28ED00E05078010899770108F8
:100D7000D377010808B5EFF3108372B60449054A2A
:100D8000032002F0D5FB0448A62100F0DFF800BFE5
:100D900077780108A8770108D377010838B5841E51
:100DA0005F2C03D91F48F62100F0D0F80F281CDD76
:100DB0002F2808DC03F1604303F561430B60103812
:100DC000012383401CE04F28D4BF174D174D4FF02F
:100DD0000104D5BF30385038ED18ED1804FA00F48E
:100DE000D4BF0D600D6014600BE0114B0B60042844
:100DF00002D14FF4803303E0052804D14FF40033CF
:100E00001360002038BD062802D14FF48023F7E795
:100E10000F2803D1074B0B600123F1E74FF0FF30A0
:100E200038BD00BFD377010804E100E008E100E02D
:100E300024ED00E010E000E0234A002310B5136029
:100E40005360224B224A1A60224A4FF080331360CB
:100E500053609360204B1B680133DB00A2F618122D
:100E600013F1FF3304D34FF0803142F8041BF7E74E
:100E70001A4B1B4900240B201C6000F0B1FE1949DD
:100E8000032000F0ADFE1849022000F0A9FE17492A
:100E9000042000F0A5FE1649052000F0A1FE15492A
:100EA000062000F09DFE14490E2000F099FE134923
:100EB0000C2000F095FE2046114900F091FE84F3CD
:100EC000118862B610BD00BF00E100E008ED00E04F
:100ED0000100000818ED00E004E000E0981A00208E
:100EE000B51100085D110008750D00081511000806
:100EF000450D0008150D0008ED0C0008C50C000894
:100F00009D0C000813B58023694601AA0446FFF72B
:100F100045FF38B9009B01990F2CD7BF1A6819609B
:100F20008A431A6002B010BD13B50023694601AAB6
:100F30000446FFF733FF30B99DE80C000F2CDCBFEF
:100F400011680B43136002B010BD704780B5564F57
:100F50003C6888B00E460546B834062000F024FDF3
:100F60000194524A00962B46032051496C4602F0E8
:100F700005FB3B68B3F90C202AB94E4B1E684FF4B1
:100F80000065043E01E01E6B9D6A4B494B4A2346B7
:100F9000032002F0F3FA4A49484A3346032002F09C
:100FA000EDFA03204749454A2B4602F0E7FAB442DE
:100FB00002D8751BAC4205D84349404A032002F0D1
:100FC000DDFA1BE024F01F04B44217D2236800931B
:100FD00063680193A3680293E3680393236904930E
:100FE00063690593A3690693E36907930320234686
:100FF0003649374A02F0C2FA2034E5E7354C226818
:10100000002A38D0936AD2F82CC0D2F830E0566B60
:101010009568D0681169526906928DE80050029671
:101020000395049005912C4A2C49032002F0A6FA5E
:1010300022689369D2F81CC0D2F820E0566A956BFA
:101040001068D16B126C0692049005918DE80050E7
:10105000029603952249204A032002F08FFA226863
:10106000536C5168EFF3148203208DE806001D498C
:10107000194A02F083FA23681BB93B68B3F90C30B4
:101080007BB9EFF3108372B6072000F08DFCFA20D5
:1010900000F02AF8072000F08DFCFA2000F024F878
:1010A000F2E7012001F006F8AC1A0020927801085E
:1010B000C6780108C6760108F97801089C7801080D
:1010C0000F790108257901083B7901087779010832
:1010D000A9780108981A0020B6780108AA790108B1
:1010E000DB7901080C7A010882B000230093009B91
:1010F00083420CD200230193019A44F24C139A428A
:1011000002D8019B0133F6E7009B0133EEE702B002
:101110007047000007B5EFF3108372B6094C0A4917
:101120002246032002F02AFA084B094A1B6812687B
:10113000009208490320224602F020FA0648802146
:10114000FFF704FF387A0108447A010828ED00E02F
:1011500034ED00E06B7A01088C7A010810B50B6C55
:101160000E4C9A1EA2420BD30D4CA24208D233F869
:10117000023CB3F55F4F03D1BDE8104000F01AB850
:10118000EFF3108372B6074B07491B68074A032029
:1011900002F0F4F90648B721FFF7D8FE0000000876
:1011A00048B001082CED00E0AF7A0108A27A0108EE
:1011B000CE7A010838B50C4619B1164D2B68994204
:1011C00002D01548A0210AE08B6A012B0DD002D372
:1011D000022B0FD01BE0C86A18B90F48CF21FFF7C8
:1011E000B5FE482202F081F911E0CB6A73B90A48D2
:1011F000E921F4E7C86A08B10B6B1BB906484FF444
:101200008071ECE7482202F070F9236B2B6000201C
:1012100038BD00BF981A0020E57A010870B58368D0
:101220001C69636A1B690E461546984710F1190F31
:101230003DD140F205339E4204D040F206339E4237
:1012400016D070BDEFF3108172B6A28B638B12B211
:101250001BB29A42628BA38BC3BFB4F91E001BB2B0
:1012600012B212B2D5BF1BB2D31AD31A1B1818E090
:10127000EFF3108172B6E289238A12B21BB29A424E
:10128000A7BF228AE389238AE089A3BFB4F91200A9
:101290001BB212B21AB2ADBFD31A03B2D31A1B18C3
:1012A000013B11F0010F00D162B600202B6070BD30
:1012B00070B50E4600F1280500F1300455F8043FE2
:1012C0004BB11A7A06EA02005A7A02435A7212B1F4
:1012D000586800F025FDA542F0D170BD38B5044630
:1012E0000D46204600F0CEFC68B100F06BFB0368B1
:1012F000042B03D004488821FFF728FE002DF0D0EE
:101300006FF0030038BD38BD2C7B01082DE9F84390
:1013100083681C6988461546002C59D0002957D08F
:1013200004F10A0738460121FFF7D8FF061E53DBF8
:10133000002D43D0E36A1BB1236B002B4FD1012357
:101340000A3304EB830304F10C0943F8048F0021F2
:10135000C8F80C304846FFF7C1FFE389B4F9122002
:101360001BB201339342A8BF0023228A12B29342D8
:1013700018BF98F80850484618BF05F0020504F158
:10138000180914BFEDB2002500F0CAFC4846002140
:10139000FFF7A4FF628BA38B12B21BB29A421EBF4F
:1013A00098F8083003F001031D43484600F0B8FCEC
:1013B00055B120462946FFF77BFF05E0D8F80C30F1
:1013C00013B11D60C8F80C50384600F0A9FC03E0CA
:1013D0006FF01200BDE8F8833046BDE8F8830023C3
:1013E000C8F80C306FF00F06EEE72DE9F843C58919
:1013F000B0F912302DB2013504460F4690469D4299
:10140000A8BF0025238A1BB29D4208D0E3896269E8
:101410001BB2ADB2D754E5810020BDE8F883B8F126
:10142000000F1DD0EFF3108972B60126636A667053
:101430005B6A2046314698473146A01DFFF74EFFB4
:10144000636A06465B6A20460021984719F0010F3F
:1014500000D162B6002ED5DA6FF00300BDE8F88344
:101460006FF00A00BDE8F8832DE9F04783681C6936
:1014700004F1180780460E46384601219146FFF7D1
:101480002DFF00284CDB00254D4545D2A38B628BF8
:101490009BB212B219B28A420ED0226AB4F91E006F
:1014A000525C01339BB219B28842D8BF0023A38398
:1014B000013532700136E7E7002D2DD1D8F8003024
:1014C0005B0627D4636A20469B6929469847628B4E
:1014D000A38B12B21BB29A4216D1EFF3108A72B6E6
:1014E000636A20469B69012198470121A17004F19C
:1014F0000800FFF7F3FE1AF0010F00D162B60028D2
:10150000C2DA6FF0030507E0636A20469B69012198
:101510009847B9E76FF00A05384600F001FC284605
:10152000BDE8F0872DE9F04183681C6904F10408E7
:1015300040460121FFF7D2FE061E34DB2578013537
:1015400015F0FF052AD0012D26D1EFF3108772B6D2
:10155000E3782BB9636A20461B689847061E09DBAF
:10156000636A20469B689847061E626A07DA5368DA
:101570002046984717F0010F00D162B610E0002313
:10158000E38123826383A3839369204601219847E3
:1015900017F0010F00D162B6257001E06FF0170659
:1015A000404600F0BDFB3046BDE8F0812DE9F84F24
:1015B000836805460E4617461C69914603F072F98A
:1015C000804628B1E37843B94FF0FF30BDE8F88F8B
:1015D00000F068FD0028F5D018E0EFF3108572B632
:1015E00006EB070846450AD016F8014B0A2C02D133
:1015F0000D20FFF70DFB2046FFF70AFBF2E715F081
:10160000010F00D162B63846BDE8F88F04F10C0A2C
:1016100050460121FFF762FE00283BDB636A2D681C
:101620005B6A41462046984785F04005C5F3801522
:10163000B846B8F1000F1ED0E37816F801BB2BB9FD
:10164000204659462A46FFF7D0FE09E0BBF10A0FB3
:10165000F6D120460D212A46FFF7C7FE0028EFD01D
:10166000002805DAB845814605D2C8EB070902E033
:1016700008F1FF38DDE7E289238A12B21BB29A42F1
:1016800004D0636A20465B6A01219847504600F007
:1016900047FB4846BDE8F88F38B50C46054600F0D4
:1016A000DFFA284622460021BDE8384001F04DBE51
:1016B00070B583681C69251D28460021FFF70EFEC2
:1016C0002378012B02D9013B237041E00021636A9A
:1016D00021709B6920469847E289238A12B21BB287
:1016E0009A4203D01D4801F07BFFF5E7636A20466C
:1016F000DB6A984718B9194801F072FFF6E7EFF373
:10170000108672B6636A2046DB689847E3781BB997
:10171000636A20465B68984716F0010F00D162B6F5
:101720000021A01DFFF7B8FF002104F10800FFF71A
:10173000B3FF012104F10C00FFF7AEFF012104F11A
:101740001800FFF7A9FF04F10A000121FFF7A4FF29
:10175000284600F0E5FA002070BD00BF20A1070078
:1017600070B501220C46064601F10C00002101F083
:10177000ECFD04F118000021012201F0E6FD201D1E
:101780000021012201F0E1FD00210A46A01D01F027
:10179000DCFD00210A460D4D04F1080001F0D5FDE5
:1017A00004F10A000021012201F0CFFD2A46334650
:1017B0000749032001F0BCFE304605F11001234625
:1017C0004FF4DB72BDE8704008F0F0BEFC7A01080F
:1017D0003C7B010810B58378044623B10023837055
:1017E000083000F09DFA20460121BDE810405FE579
:1017F00010B54378044623B100234370063000F04F
:101800008FFA20460221BDE8104051E570B504462C
:101810000025E289238A12B21BB29A42AEB20BD1E2
:10182000E289238A12B21BB29A4220D1636A20460F
:101830005B6A002198471AE0636A20469B6A9847D2
:101840000028EDD0238A626A6169126A1BB22046C1
:10185000C95C9047238AB4F9122001339BB22382DA
:101860001BB29A42DCBF002323820135D1E726B1A7
:101870002046BDE87040FFF7BBBF70BD2DE9F341C6
:10188000448BB0F91E3024B2013407469C42A8BFF5
:10189000002400261FFA86F87B6A3846DB699847E1
:1018A000B8B1BD8B7B6AADB25B69384601A92DB278
:1018B0009847AC42F0D07B8B3A6A1BB20136D054C9
:1018C000A3B27B83B7F91E3001349C42A8BF002429
:1018D000E0E7B8F1000F02D03846FFF77BFF02B017
:1018E000BDE8F08108B5044B0BB115F0ADFEBDE8C5
:1018F000084000F041B800BF4976010838B5050935
:10190000E907044603D518480021FEF7BEFEAA07E2
:1019100003D516480021FEF7B8FE6B0703D514481F
:101920000021FEF7B2FE2D0703D512480021FEF775
:10193000ACFEE00703D50C480121FEF7A6FEA10787
:1019400003D50A480121FEF7A0FE620703D5084827
:101950000121FEF79AFE230705D506480121BDE8BF
:101960003840FEF792BE38BD3C0804003D08040034
:101970003E0804003F08040008B50748FEF796FE3D
:101980000648FEF793FE0648FEF790FE0548BDE8C0
:101990000840FEF78BBE00BF3C0804003D08040071
:1019A0003E0804003F080400014B13F81000A5E7AF
:1019B000507B0108024B33F81000000A9EE700BF7D
:1019C000507B010808B502F06DFF38B9044B186868
:1019D00020B1437E032B01D15C3008BD014808BD16
:1019E000AC1A002050120020594E5A4A5A4D012379
:1019F0003370002383B513605360584A13605360FB
:101A0000574A13605360574A13605360564A136035
:101A10005360564A13605360554A13605360554AE9
:101A2000136053602B80544A002799189F50083345
:101A30004FF6FF70802B8880F5D12B884F4C29887A
:101A400003F00F03204642F8334002EBC30204F1D7
:101A5000B80891803946E02201F01DFD2B88A38152
:101A600003231F2263760225454B464923614046E6
:101A70006361658301F027FD04F1E0033549C4F893
:101A8000DC30204684F8D770C4F8E080C4F8E470F5
:101A900001F041FC204602F0F1FE684601A902F087
:101AA0001FFB9DE8030002F06BF9374B35700BB15B
:101AB00000F0D6FB354B0BB101F048FB344B0BB1BA
:101AC00001F088FA334B0BB1AFF30080324B0BB10E
:101AD00001F0CCF8314B0BB110F074FE304B0BB170
:101AE00010F083F8254D07F0D9FF02F0ABFE032379
:101AF0002846A17E337000F01FFB002803DA294836
:101B000040F2D52107E0284600F04EFB002804DA19
:101B100024484FF43A71FFF719FA284600F034FBD5
:101B2000002803DA1F4840F2F121F4E7AB680122F4
:101B30001A70074B04221A7000F036F8002803DAF6
:101B400018484FF44471E6E702F0DEFAFCE700BF04
:101B5000B41A0020AC1A0020581B0020501B002093
:101B6000A41A0020C81A0020B81A00209C1A0020CD
:101B7000C01A00205C1B0020D01A00205412002044
:101B8000E9190008607B0108612200084D31000856
:101B9000D52F0008000000006D2C0008C5270108A3
:101BA000EB1B0108B47B010813B5002400F09EFA7A
:101BB00000940848084B64214FF4804200F034F947
:101BC000A04204DC054840F20D11FFF7BFF92046A2
:101BD00002B010BDC47B0108B54B0008C97B0108E9
:101BE000612838B504460FD8EFF3108572B611B9E5
:101BF000FFF788F90649074B43F8241015F0010F49
:101C000000D162B6002038BD4FF0FF3038BD00BFB4
:101C1000391C0008801B0020612807D8044B054AA6
:101C200053F82030002B08BF134600E0014B184743
:101C3000801B0020391C000808B50346EFF3108212
:101C400072B60449044A032001F098FC034841217C
:101C5000FFF77CF9EE7B0108DB7B0108FB7B0108C9
:101C600008B530B103881BB2002B09DB01230380C8
:101C700006E0FFF7A7FE162303604FF0FF3008BD14
:101C8000002008BDF8B5244B05461F6802F00AFE87
:101C9000044610B12148572117E0FFF793FE1623A1
:101CA0000360002D34D0EFF3108672B62B881BB280
:101CB000002B06DD2B88013B9BB22B8020467C63EA
:101CC00021E07C6B1CB115487C21FFF73FF92B8884
:101CD000013B9BB22B807D63FFF774FE05210460FE
:101CE000384602F02FFDFFF76DFE0368042B08D085
:101CF000FFF768FE00686E284FF0FF3018BF002025
:101D000001E04FF0FF3016F0010F00D162B6F8BDD0
:101D10004FF0FF30F8BD00BFAC1A0020137C010863
:101D200010B528B3EFF3108472B6038847F6FF723C
:101D30001BB2934203D110486621FFF707F90388CD
:101D400001339BB2038003881BB2002B0ADC0B4BD0
:101D50001B683BB15A6B8242FAD100225A63184683
:101D600002F064FE14F0010F00D162B6002010BD35
:101D70004FF0FF3010BD00BF287C0108A41A0020DE
:101D80002DE9F3410446E0200E461746984602F03E
:101D900017F8054600283AD0314600F0CDF9002862
:101DA0001EDB284600F028FA002819DB28464146A9
:101DB000324602F014FD002812DB00962846394610
:101DC000174A089B00F074F8002809DB2146099A9D
:101DD000284600F0CFF8284600F0D6F9002801DAAE
:101DE00044420FE02846AC8900F02EF9002807DABB
:101DF000FFF7E8FD0B490468284601F098FA01E076
:101E000020B20AE02846314600F056FA00E00C24E1
:101E1000FFF7D8FD04604FF0FF3002B0BDE8F0815D
:101E200061200008C01A002037B50D461446009303
:101E3000069B019300212A462346FFF7A1FF03B02A
:101E400030BD37B50D4614460093069B0193022121
:101E50002A462346FFF794FF03B030BD38B5054648
:101E600000F054FA1021104A138801339BB218B2C3
:101E700000281380DCBF0123138003F00F000B4AFE
:101E800052F830404CB942F8305002EBC002938017
:101E9000AB8100F053FA204638BD0139E3D100F0A0
:101EA0004DFA4FF0FF3038BD581B0020D01A0020EB
:101EB0002DE9F04104460E4690461F46FFF7CEFF3F
:101EC000054618BB9DF81830C4F8108003F00302D3
:101ED000638B676123F003031343F6B2638304F15A
:101EE000380229462676032000F05CFA2046657603
:101EF00002F0C4FC00F00AFA2046064901F00BFA91
:101F00000423637600F01AFA84F8D8602846BDE806
:101F1000F08100BFC01A00202DE9F0410446884638
:101F200017461E46FFF79AFF0546E8B9638B84F80B
:101F3000188023F0030343F001036383294604F16F
:101F4000380227616661032000F02CFA204665768E
:101F500002F094FC00F0DAF92046054901F0DBF9C3
:101F60000423637600F0EAF92846BDE8F08100BF5B
:101F7000C01A00202DE9F84F314B064600F1B80990
:101F8000002908BF1946154648461F22002401F0C3
:101F90009AFA86F8D740484601F08DFA471C0DB9E9
:101FA0002C4612E055F8240078B101F084FAB36AA7
:101FB000013007449F423FD2013440F201139C425A
:101FC000F0D16FF00600BDE8F88F0234A40030466F
:101FD000E11902F017FD824620B91A4840F22B2180
:101FE000FEF7B4FF00EB0408C0F80080484601F09B
:101FF00062FA49460746404601F055FA0137083C67
:102000004744D146043D5444A1450ED049F8047FCD
:1020100055F8040F01F04FFA8346296838460BF152
:10202000010B01F040FA5F44EEE7002048F8040C91
:10203000C6F8DCA0BDE8F88F6FF02300BDE8F88F8C
:102040003D7C0108467C010810B5EFF3108472B6A0
:1020500002F0ECFC14F0010F00D162B6002010BDBC
:1020600008B50E4B1B685A8B02F00302012A03D1FC
:102070000B486B21FEF76AFFD3F8DC10012051F802
:10208000202032B1013040F201129042F7D10120FC
:1020900001E05B69984700F00DF800BFAC1A002022
:1020A000587C0108024B186800B1808900B2704763
:1020B000AC1A002008B5054B1B68C4B2214618466F
:1020C000002200F063FB204602F0AEFBAC1A0020B9
:1020D00007B500F0D3F8002303480093D0E90023AC
:1020E00000F0A9FBF5E700BF681B002013B50E4CFC
:1020F0000E4805220023C4E900230023A360E36007
:102100000093E0210A4B4FF40062FFF79AFE83B27E
:1021100018B2002803DC0748A221FEF717FF23822C
:102120000123A37402B010BD681B00206A7C010863
:10213000D1200008717C0108F8B5054608B1846813
:102140001CB11048B521FEF701FF4FF42D7001F0CE
:1021500037FE064690B1A86000F008FC071E05DABD
:10216000304601F021FEAC603846F8BD06F10C00A7
:102170002146012201F0E9F82046F8BD6FF00B007E
:10218000F8BD00BF897C010808B508B1836823B990
:10219000044840F21911FEF7D9FE01225A700020BE
:1021A00008BD00BF897C010838B50446806818B9AD
:1021B0000F485621FEF7CAFE343007F09AFC0D484E
:1021C000032107F02AFF051E0BD1012107F084FE31
:1021D0002846022107F080FE2046BDE8384000F086
:1021E00021BC01DD07F066FE6FF0160038BD00BFB0
:1021F0009E7C010838770108F8B50546806810B95B
:102200001548D62106E06B8B03F00303012B03D1A5
:102210001148D921FEF79AFE343007F06AFC0F4BC3
:102220001A68AB680BB1946814B90B486121F1E7E7
:1022300003F1380738340026A3681BB12046B919CA
:1022400007F07EFC1036C02E04F11004F4D12846AD
:10225000BDE8F84000F0E6BBBB7C0108AC1A0020EA
:102260000023044A044942F823100133622BF8D1B9
:10227000704700BF801B0020391C000810B50948BA
:1022800003686BB1EFF3108472B601F029F814F013
:10229000010F00D162B60028F1D001F085FDEEE714
:1022A00010BD00BF5C1B0020024B1868003018BF37
:1022B000012070475C1B002038B50D460446F0B184
:1022C000104B1BB1B0F90C00AFF30080A38953B1E0
:1022D0000D4A03F00F03002142F8331002EBC30351
:1022E0004FF6FF729A80E36A1BB12046294602F03E
:1022F00005FB204600F064FB204600F02DFC00208A
:1023000038BD00BF00000000D01A002010B5094BF6
:102310001C6864B102F0C6FA48B9A38B1AB27E2ACF
:1023200003DD05489E21FEF711FE0133A383002043
:1023300010BD00BFAC1A0020D87C010870B5174B47
:102340001C681D463CB302F0ADFA20BBEFF31086CB
:1023500072B6A38B1AB2002AC4BF03F1FF33A38362
:10236000B4F91C30002B12DC0023A3830C4B1B6838
:102370000BB102F09FFA638B03F03003102B06D1F0
:10238000236A23B92B689C421CBF1423236216F0D6
:10239000010F00D162B6002070BD00BFAC1A002052
:1023A000501B0020F8B5164B1D68174606460C4614
:1023B000FFF7ACFFAB6B07B13B60ECB1EFF3108202
:1023C00072B6022E07D0032E0AD0012E0CD1A96BB3
:1023D00023680B4305E02168AB6B23EA010300E0AF
:1023E0002368AB63002401E04FF0FF3412F0010FCB
:1023F00000D162B600F006F8FFF7A0FF2046F8BD56
:10240000AC1A002037B5154B1D68FFF77FFFA86B8E
:10241000C443284600F092FC20400190019BC3B1C8
:1024200001A800F061F8431C0446F7D0214601A83A
:1024300000F0ACFF2146284600F012F804460028C0
:10244000ECD02846211D00F05FF8204600F02CF863
:10245000E4E7FFF773FF03B030BD00BFAC1A002004
:1024600038B583681BB90F484B21FEF76FFDEFF3BA
:10247000108572B65C6A002074B122798A4202D05B
:1024800020462468F8E703F1240110B100F032FF80
:1024900002E0084600F024FF15F0010F00D162B6FB
:1024A000204638BDEB7C010810B5037B23B9EFF360
:1024B000108472B60A4905E0022B0AD1EFF31084AA
:1024C00072B6084900F0ECFE14F0010F00D162B6BC
:1024D00010BD012B03D1BDE8104000F03DBB10BD85
:1024E0002C1D0020241D002038B505460024284658
:1024F000214600F05EFF28B90134202CF7D14FF0BF
:10250000FF3038BD204638BD2DE9F0410E46044667
:1025100000B119B96F484FF49A712AE03830097840
:1025200000F047FF8046002871D0EFF3108772B6A5
:10253000637E062B15D104F13C00317800F039FFA1
:1025400078B13146082204F15000002500F0CDFF9B
:10255000E563204602F06AFA17F0010F00D162B677
:10256000B5E017F0010F00D162B6A5681DB9594852
:10257000EC21FEF7EBFC3278EFF3108372B6686A59
:1025800020B10179914201D00068F9E713F0010F01
:1025900000D162B628B131460822043000F0A5FF10
:1025A0008FE002F07FF960B14B4800F099FE0446DD
:1025B000D8B94A4800F094FE0446002800F0838011
:1025C00013E0EFF3108772B6434800F089FE04462B
:1025D00017F0010F00D162B638B9102001F0EAFB04
:1025E000044600286FD001230373201D31460822C2
:1025F00000F07BFFEFF3108672B6204605F1240150
:1026000000F04EFE16F0010F00D162B659E0FFF760
:102610007DFEA06810B92F485121AAE7317800F05B
:10262000BBFB0746E0B14368E3B100F0C7FB0546DA
:10263000D0B17B684360BB688360314608220C30B0
:1026400000F053FFEFF3108772B6284604F1400103
:1026500000F026FE17F0010F00D162B6454605E0F6
:10266000054603E01D4601E06FF00B05FFF766FE2F
:1026700020461B4902F04EF9EFF3108772B6637ED5
:10268000062B0AD104F150003146082200F02DFF3C
:102690000023E363204602F0C9F917F0010F00D1CF
:1026A00062B6637E052B03D12046042100F0A6FA12
:1026B000637E073B012B0AD82046042100F0FCF979
:1026C00005E0002503E003484FF4AA7151E72846CE
:1026D000BDE8F0810C7D01082C1D0020241D002088
:1026E0000127000810B50C4600F058FA20B1214629
:1026F000BDE81040FFF708BF6FF0020010BD00BF3B
:102700002DE9F8430546FFF701FEEF6D2C6C002C18
:1027100037D0D4F80080EFF3108972B6204605F167
:10272000400105F1480600F0C5FD2046314600F0A5
:10273000B7FD19F0010F00D162B6D5F83890A36843
:10274000217B49EA030201238B4013432146AB63FB
:10275000636811F80C0F00229847C5F83890FFF70E
:1027600051FEEFF3108972B62046314600F0A2FD0B
:1027700019F0010F00D162B6204600F043FB444639
:10278000C5E7EF65BDE8F843FFF7D8BDF8B5438B63
:102790001B0604460E4617462DD400F02DF8A568FA
:1027A0000DB9F7B915E0638B03F00303012B03D0D8
:1027B000AB680BB136021E606B78012BF1D10023A0
:1027C000AB60AB881BB2002BEBDA281DFFF7A8FA31
:1027D000F7E7A06828B14378012B02D1F83000F068
:1027E000F1FD204600F0ECF8204600F02BFB638B57
:1027F00043F080036383F8BD10B5044600F008F889
:10280000204600F0DDF92046BDE8104000F032B966
:1028100038B50446EFF3108572B6406A30B100F067
:102820003BFB606A00F06EFB0023636215F0010F52
:1028300000D162B638BD2DE9F04D804686B0924693
:102840009B46EFF3108572B600F082F8CDE90001E7
:10285000D8F80840ADB256465F46002C4BD000F089
:1028600077F8D4E90423CDE90201801A61EB030172
:1028700002460B46CDE90423D4E90623994208BF5A
:10288000904216D3204608F1080100F050FDA368DD
:10289000002B2ED00022E068A26015F0010F00D1BD
:1028A00062B69847EFF3108572B6ADB2D8F808401B
:1028B000D3E7DDE90023DDE90201801A61EB0301C2
:1028C000DDE9042312184B4110461946D4E90623CA
:1028D0008B4208BF824201D2D4E90601D4E9062323
:1028E000101A63EB0101B94208BFB0423CBF064673
:1028F0000F462468B1E700F02BF8DDE90023821AC7
:1029000061EB03035B4508BF5245194618D256EAEE
:10291000070315D0BAEB02000E9B6BEB01018F424F
:1029200008EB830808BF864242F2107338BF304676
:10293000584388F8124000F053FE012388F8123003
:1029400015F0010F00D162B606B0BDE8F08D0000B1
:10295000EFF3108372B6044AD2E9000113F0010FBD
:1029600000D162B6704700BF381D002070B5124B11
:1029700006461D6810B10DB1AB681BB90F48552153
:10298000FEF7E4FAFFF7C2FCAC688CB1236B5BB1D5
:10299000E46A204601F00EFA40B1F4623063AB689D
:1029A0002246196B00F0A1FD002401E06FF00B043A
:1029B000FFF7C4FC204670BDAC1A0020227D010840
:1029C00038B5054620B9164840F29111FEF7BEFA17
:1029D000846824B36378012B02D9013B63701CE047
:1029E000204600F046FA204600F096F804F1340044
:1029F00007F08EF8204600F0E9FB204600F006FBC9
:102A0000204600F02DF8A37823B1237843F0080383
:102A1000237002E0204600F09FF80023AB6038BD31
:102A2000347D010810B5044608B1806818B90B4818
:102A30004921FEF78BFA00F0A7FB22460121002076
:102A400007F03EFD22460621012007F039FD062150
:102A50002246022007F034FD002010BD487D010809
:102A600010B50446D4F8AC0218B1214607F06CFF4B
:102A7000F8E710BD08B5437E072B0BD1826D1AB164
:102A8000538A19B2002902DC0A4855210CE0013BA7
:102A9000538208BD082B0BD1826D1AB1138A19B26B
:102AA000002903DC03485F21FEF750FA013B138243
:102AB00008BD00BF637D010838B5EFF3108472B61E
:102AC000427ED31F012B1FD8836D13B9114861219A
:102AD00009E00025072A85650AD15A8A15B2002D1A
:102AE00003DC0C486921FEF731FA013A5A8208E00A
:102AF0001A8A15B2002D02DC06486E21F3E7013A6E
:102B00001A82C16501F092FF14F0010F00D162B684
:102B100038BD00BF777D010838B5044618B90D48A7
:102B20004C21FEF713FA25696DB1284650F80C3B8D
:102B30002361FFF795F805F10A00FFF791F82846A1
:102B400000F00AF8EFE704F10C00BDE83840FFF7A9
:102B500087B800BF8B7D010838B5044601F0A2FE9E
:102B600070B1EFF3108572B60B49204600F098FB68
:102B7000002000F0FDF915F0010F00D162B638BD5C
:102B800001F006F90028ECD1204601F00DF9BDE86E
:102B9000384001F003B900BF5C1B002000280BDBAC
:102BA000064B00F00F0203EBC201B1F904108142A1
:102BB00002D153F83200704700207047D01A00202D
:102BC00008B5EFF3108172B6437E052B0FD1426B2F
:102BD0001AB113881BB2002B03DB07486321FEF7F1
:102BE000B5F9138801339BB213800023436311F0BE
:102BF000010F00D162B608BDA57D010838B5EFF31D
:102C0000108572B6437E052B12D1446B1CB123880C
:102C10001BB2002B03DB09486221FEF797F92388DA
:102C200001339BB2238000234363C16501F0FEFEA4
:102C300015F0010F00D162B638BD00BFBD7D01089F
:102C400038B54FF4A07001F0B5F8064B00F5A0744C
:102C5000186000F11405044900F022FBA542284643
:102C6000F7D138BD3C1300200C1D00202D4AF8B5CB
:102C70000023136053602C4A136053602B4A136087
:102C800053602B4A136053602A4A4FF4C07013609C
:102C9000536001F08FF8054600F5C074002300F181
:102CA00018060375204900F0FBFAA6423046F5D11C
:102CB000214CC020656001F07DF8054600F1C0069A
:102CC000022300F118070375184900F0E9FAB7422A
:102CD0003846F5D1A560FFF7B3FF4FF4807001F0DF
:102CE00069F8054600F58076002300F110070373AC
:102CF0000F4900F0D5FAB7423846F5D18020E5609B
:102D000001F058F8054600F18006022300F1100793
:102D10000373084900F0C4FAB7423846F5D125617B
:102D2000F8BD00BF0C1D0020141D00201C1D00203C
:102D30002C1D0020241D00203C13002037B5836883
:102D40001BB90C486521FEF701F900220192EFF34F
:102D5000108572B65C6A2CB1217901A800F005FBE0
:102D60002468F8E715F0010F00D162B6019803B0AE
:102D700030BD00BFD57D010810B5064B04461B6869
:102D800028B11846FFF7DAFF2060002010BD4FF091
:102D9000FF3010BDAC1A002038B50D46044650B1C6
:102DA000FFF7B4FAE46924B1237CAB4201D0246874
:102DB000F9E7FFF7C3FA204638BD000010B501F06F
:102DC00071FD40B10D4800F08BFAA8B90C48BDE880
:102DD000104000F085BAEFF3108472B6074800F097
:102DE0007FFA14F0010F00D162B628B9182000F064
:102DF000E1FF08B10123037510BD00BF141D0020C1
:102E00001C1D002010B5037D23B9EFF3108472B6AA
:102E10000A4905E0022B0AD1EFF3108472B6084983
:102E200000F03EFA14F0010F00D162B610BD012B84
:102E300003D1BDE81040FFF78FBE10BD141D002068
:102E40001C1D002010B5044604F1400000F048FAB3
:102E500010B1FFF7D7FFF7E704F1480000F040FAA0
:102E600010B1FFF7CFFFF7E74FF0FF32A263E06347
:102E700010BD10B5044604F11C0000F031FA10B189
:102E800000F0D6F8F7E704F1240000F029FA10B1B9
:102E9000FFF70AFBF7E710BD38B50446EFF31085DE
:102EA00072B658B1037BDB0708D5144B1B680020B2
:102EB0003BB1A34209D018461B68F9E74FF0FF3039
:102EC00017E00F486E21FEF741F823681BB199689F
:102ED000A2680A449A6018B1084900F00BFA02E0AF
:102EE000064800F0FDF9237B002023F00103206059
:102EF000237315F0010F00D162B638BD541D0020B8
:102F0000EA7D010838B5044610B91648512121E080
:102F1000EFF3108572B6037BD90701D5FFF7BCFF2D
:102F2000237B9A0707D515F0010F00D162B6204622
:102F3000FFF712FE14E05B0712D420460A4900F0A6
:102F4000AFF90A4A138801339BB2202B138003D9AF
:102F500004488021FDF7FAFF15F0010F00D162B699
:102F6000002038BDFB7D0108481D0020501D0020B9
:102F700010B5044660B9094B1121B3F9100000F0F7
:102F8000BBF8002807DAFEF71DFD0068404210BDBF
:102F90006FF0150010BD204610BD00BF681B00205B
:102FA0007FB5684601F01EFA002806DB684600F08F
:102FB00001FB064B002218605A60054B00200021DF
:102FC000C3E9000107B05DF804FB00BF401D00200D
:102FD000381D002008B501F051F9BDE80840DFE7D1
:102FE00010B5EFF3108472B6FFF7DAFF14F0010F9B
:102FF00000D162B610BD0449D1E90023013243F18A
:103000000003C1E900237047381D002010B50446B5
:1030100018B906484E21FDF799FF006B08B1FFF77C
:103020009BFD0023E362236310BD00BF0C7E0108FB
:10303000014900F035B900BF0C1D00202DE9F04119
:103040002A4B1B6880460E4615460BB19F6817B980
:103050002748A62136E01F2807D9FEF7B3FC162320
:1030600003604FF0FF30BDE8F08138464146FFF77E
:1030700093FE044655B130B143682B6083686B60A2
:10308000C368AB6002E028606860A8604EB3356832
:103090004DB9204644B307F11C0100F00BF920465E
:1030A000FFF7C6FF1DE0B4B9124800F019F9044655
:1030B00050B9FFF7C5FD0F4800F012F9044618B9E2
:1030C0000B485E21FDF742FF84F81080204607F18F
:1030D0001C0100F0E5F8336863607368A360B368AF
:1030E000E3600020BDE8F081BDE8F081AC1A00206B
:1030F000227E01080C1D002037B5051E0C4616DD8A
:103100001F2917D8FFF702F904238DF8004028463D
:10311000002469468DF802308DF801400194FFF7D4
:10312000E1FA0546FFF70AF9A5420CDA04E06FF070
:10313000250501E06FF01505FEF744FC6D420560C2
:103140004FF0FF3000E0204603B030BD0A4A0023B4
:1031500010B513605360094A1C4613605360084859
:1031600005492044203400F09BF8B4F5806FF6D177
:10317000044B20221A8010BD481D0020541D002041
:1031800050130020501D002038B5044618B90E48D1
:103190005C21FDF7DBFEF8300021012200F0D5F8BC
:1031A00004F1FC0504F52B7428460021242200F0CC
:1031B00072F94FF0FF332B602846243500F022F8D7
:1031C000A542F1D138BD00BF367E010838B50446AE
:1031D00018B90B489021FDF7B9FEF830FEF740FD15
:1031E00004F5807504F52C742846FEF739FDA868AF
:1031F00008B1FFF7B1FC2435A542F5D138BD00BFB9
:10320000367E010810B5002104460122043000F08A
:103210009CF84FF6FF73E3800023A36010BD38B520
:103220000446FEF73FFFB4F906308342054602D15B
:10323000A36801330EE0201DFEF724FD40B1FEF728
:10324000C1FB0368042BF6D003486A21FDF77EFE1C
:10325000E5800123A36038BD487E010810B504460F
:10326000FEF720FFB4F90630834202D00B487E21DE
:1032700010E0A368012B02DD013BA36010BD4FF6F7
:10328000FF73E3800023A360201DFEF749FD18B102
:1032900002488E21FDF75AFE10BD00BF487E01088E
:1032A000002303600B680BB9086001E04B681860ED
:1032B000486070470B6893B188B1984209D10368A0
:1032C0000B604B6898420AD100234B60704713464D
:1032D0002AB11A688242FAD1184600F00BB870473A
:1032E00003682BB11A68026002B9426000221A60BA
:1032F000184670470A6803685AB153B14A689A423F
:1033000014BF196848604FF000020CBF02600160F2
:103310001A6018467047002343600B6803600B680F
:1033200013B9086048607047586008607047426889
:1033300003680AB90B6000E013600BB94A6000E053
:103340005A60002303604360704708B530B1B2F59E
:10335000004F03D292B20280002008BDFEF732FB7C
:10336000162303604FF0FF3008BD1F2908B506D9AA
:10337000FEF728FB162303604FF0FF3008BD0268FC
:1033800001238B4013430360002008BD1F2908B5AB
:1033900006D9FEF717FB162303604FF0FF3008BD78
:1033A000012303FA01F2036823EA02030360002009
:1033B00008BD1F299DBF0068C84000F001004FF004
:1033C000FF307047F8B50646D0B100F01FF9341D44
:1033D00006F5DA7700252368002B0ADBA38B9B0711
:1033E00007D52046012100F00EF835EA200528BF58
:1033F00005462434BC42EED1304600F019F900E015
:1034000005462846F8BDF8B50368002B04460F466C
:103410003EDB838B9B073BD5FFF701FF6569E368C4
:103420009D4206D12046FFF719FF6369E068181A2C
:10343000F8BDA6699E4204D02046FFF70FFF00208A
:10344000F8BDAD1B206831462A4607F022F8002857
:103450000BDAA37F43F00203A3772046FFF7FEFEBB
:10346000FEF7B0FA00684042F8BD06442D1A1FB9B5
:10347000E3686361354402E0002DE3DCF8E7AE4227
:10348000D0D063695A1C626116F8012B1A70F6E7F6
:103490006FF00800F8BD02440346934202D003F8DF
:1034A000011BFAE77047421E11F8013B02F8013F89
:1034B000002BF9D1704703461A46013311780029D1
:1034C000FAD1101A704710B502440346934205D052
:1034D00011F8014B03F8014B002CF7D1934203D0B4
:1034E000002103F8011BF9E710BD10B5431E0A4483
:1034F000914204D011F8014B03F8014FF8E710BDD9
:1035000030B50A4B1B7843FA00F010F0010085B08B
:103510000D46144608D06846012100F0DDFB6846E0
:103520002946224600F032FA05B030BDB000002036
:103530000EB403B503AA52F8041B0192FFF7E0FF93
:1035400002B05DF804EB03B0704700BF30B50A4B22
:103550001B7843FA00F010F0010085B00D461446C8
:1035600007D001A800F06CFB01A82946224600F014
:103570000DFA05B030BD00BFB00000200EB403B599
:1035800003AA52F8041B0192FFF7E0FF02B05DF8B6
:1035900004EB03B0704700BFEFF3108172B6044B29
:1035A0001A78187011F0010F00D162B610467047FA
:1035B000B000002010B504464069E268216900F2BD
:1035C0006C7000F0A3FBA268182303FB0020636863
:1035D0003C2202FB0033206802FB030010BD000008
:1035E00007B568B1084AB0FBF2F302FB1300009381
:1035F0004FF47A7358430190002168460EF0B2FDF3
:1036000003B05DF804FB00BF40420F0010B5044654
:103610002046FEF737FB40B1FEF7D4F90368042BD0
:10362000F6D002485121FDF791FC10BD5B7E0108E8
:10363000FEF776BB0A2370B5B1FBF3F2054603FB38
:10364000121412B11146FFF7F5FF2B68284604F15A
:103650003001BDE87040184770B501F00705C90892
:10366000044601D0FFF7F8FF2368204605F130013A
:10367000BDE87040184770B501F0010549080446DF
:1036800001D0FFF7F8FF2368204605F13001BDE8BF
:10369000704018472DE9F041194616461F4604466A
:1036A000002310460A220DF089FC002315463046FF
:1036B0000A2239460DF082FC02460B4652EA03010B
:1036C00002D02046FFF7E6FF2368204605F13001CF
:1036D000BDE8F04118472DE9F04116461D4602F0BD
:1036E0000707F20842EA4572EB0852EA0301044672
:1036F00001D0FFF7F0FF2368204607F13001BDE855
:10370000F041184770B502F001055B084FEA32023C
:1037100052EA0301044601D0FFF7F4FF2368204674
:1037200005F13001BDE8704018472DE9F04101294D
:10373000044617461D46069E2ED0022916D012F0CA
:10374000810F18BF01369D1B002D05DD2368204623
:1037500020219847013DF7E7390602D52368204626
:103760001DE0FA0724D5236820461DE0130602D584
:1037700003682D2103E0D10703D503682B21984767
:103780000136AD1B002D05DD23682046302198470A
:10379000013DF7E7BDE8F0813A0602D503682D2127
:1037A00003E0FB0704D503682B21BDE8F04118476F
:1037B000BDE8F0812DE9F041002304460E4617468E
:1037C0001C2526FA05F111F00F0101D113B90BE008
:1037D000092903D823682046303103E0394423689F
:1037E00020460A3998470123043D2A1DE9D12BB907
:1037F000236820463021BDE8F0411847BDE8F0813C
:10380000692970B504460D461E4612D006D86229B5
:1038100031D064290DD0582931D10FE070290DD055
:1038200002D86F291DD070BD752903D0782905D025
:1038300070BD20463146BDE87040FBE6920707D5D3
:1038400023682046302198472368204678219847EE
:10385000582D204631460CBF41226122BDE8704000
:10386000A8E7930702D503683021984720463146E0
:10387000BDE87040F0E61946BDE87040FBE670BD5B
:103880002DE9F0479DF82090044616461F464FF05C
:103890003C0800253046394642460DF083FB10F0C7
:1038A0000F0101D115B90BE0092903D8236820467F
:1038B000303103E04944236820460A3998470125FE
:1038C000A8F1040818F1040FE4D12DB923682046AB
:1038D0003021BDE8F0471847BDE8F0872DE9F041F9
:1038E000692904460D46DDE906670FD006D862292E
:1038F00032D064290AD0582933D10DE0752906D079
:10390000782909D06F291CD0BDE8F08120463246C5
:103910003B46BDE8F041BDE6920707D52368204647
:10392000302198472368204678219847582D0CBFAE
:10393000412361230693204632463B46BDE8F041D1
:103940009EE7930702D50368302198472046324608
:103950003B46BDE8F041BEE632463B46BDE8F0419D
:10396000D0E6BDE8F08138B501290546049C0CD1AC
:1039700012F0810F18BF01341C1B002C05DD2B68D1
:10398000284620219847013CF7E738BD2DE9F04F44
:10399000064689B00D4617462978002900F0348183
:1039A00025290AD03368304698472B780A2B40F0F7
:1039B000298173683046984724E100240135A346E5
:1039C000A246297819B1924800F094F930B12978CB
:1039D0002529B84641D13368304667E02B782D2B36
:1039E00032D0302B33D02A2B09D1610707F10403E1
:1039F0003A682FD444F008041F4692462BE0A3F106
:103A00003102082A11D8303B6A78303AD0B20928FE
:103A100005F1010104D80A2000FB03230D46F3E75A
:103A200014F0040F08BF9A4615E02E2B02D144F083
:103A3000040410E02B2B02D144F001040BE0232BF3
:103A400009D144F0020406E04FF0010B03E04FF00F
:103A5000020B00E01F460135B3E773291FD1D8F8E8
:103A600000406C4B002C08BF1C462046FFF723FD8E
:103A7000594600908046002230465346FFF755FED7
:103A80000437013C14F8012F22B133683046114647
:103A90009847F7E7CDF8008030465946AFE06329F4
:103AA00006D13368D8F80010043730469847A9E0AB
:103AB0004C2902D144F0400406E06C2909D16B780E
:103AC0006C2B03D044F02004013502E044F0600484
:103AD00002355148297800F00DF9002800F0928055
:103AE00014F0400F29784BD0702949D0073727F0C0
:103AF0000703692903F10807D3E900890DD005D828
:103B0000622918D0642908D0582904E06F2914D3F9
:103B1000702910D9782910D10DE0B8F1000F79F192
:103B200000030ADA04F0FE04D8F1000844F080042F
:103B300069EB490901E004F07E0405A8039100F057
:103B400097F805A803992246CDE90089FFF7C6FE3C
:103B5000DDF81CC0CDF800C0304659462246534619
:103B6000CDF80CC0FFF7E1FD29783046CDE900899A
:103B70002246FFF7B3FEDDF80CC0CDF800C03BE0F5
:103B8000692907F10407D8F800800DD005D862290B
:103B900014D0642908D0582904E06F2910D3702963
:103BA0000CD978290CD109E0B8F1000F08DA04F03B
:103BB000FE0444F08004C8F1000801E004F07E0433
:103BC00005A8039100F054F805A80399224643463E
:103BD000FFF716FEDDF81C90CDF8009030465946F0
:103BE00022465346FFF7A1FD304629782246434638
:103BF000FFF706FECDF80090304659462246534660
:103C0000FFF7B1FE0135C7E6B06809B0BDE8F08F37
:103C1000777E0108707E01088A7E010810B504468F
:103C200018B906483D21FDF791F90846FCF7F0FF69
:103C300001301EBFA3680133A36010BD937E01084D
:103C4000034B0360034B436000238360704700BF56
:103C50001D3C0008F13C000808B518B903483421A0
:103C6000FDF774F983680133836008BDAC7E0108F9
:103C7000034B0360034B436000238360704700BF26
:103C8000593C0008F13C000837B504468DF8071090
:103C900010B1C368002B04DA0E483D2115E0042B57
:103CA00015D1E0680DF10701012206F0F2FB0128B1
:103CB000054603D1A3680133A36008E0FDF782FE47
:103CC000002D0368EBDB03485221FDF73FF903B0F9
:103CD00030BD00BFC67E0108034B0360034B436049
:103CE00000238360C1607047893C0008F13C0008F4
:103CF0000020704748B1034610F8012B8A4203D0D8
:103D0000002AF8D1104670471846704770B50E4625
:103D10001546044600F01EF8C1B2304600F00EF819
:103D2000013DA4F2B27340F26D1202FB03526FF434
:103D3000F6631C4402EBA402104470BD044B01283E
:103D400033F8103001DD01B101331846704700BF70
:103D5000DE7E01084FF4C87290FBF2F302FB1303FE
:103D60005BB1642290FBF2F302FB130333B110F05A
:103D7000030F0CBF0123002300E001231846704706
:103D800003460A460148194600F04FB85C1D002062
:103D9000014800F079B800BF5C1D0020014800F028
:103DA000ABB800BF5C1D00200146014800F0EEB832
:103DB0005C1D00200146014800F03EB95C1D00205A
:103DC0000146014800F080B95C1D0020F0B50A44AE
:103DD00001F10F0525F00F058168C36922F00F027C
:103DE000C5EB020E7144816000EB8303294608276E
:103DF000DD6041F8087BDC684FF0004CC4F804C07B
:103E0000AEF11004AC60A2F108044F605C6142F8AE
:103E1000087C5A69AB6843EA0C035360C3690133F9
:103E2000C361BDE8F04000F089B870B50E460021CE
:103E300004468160C161154620304FF49872FFF747
:103E40002AFB04F1300304F5A872A3F11001D96034
:103E500043F8083C10339342F7D1204600F008F8AD
:103E6000204631462A46BDE87040FFF7AFBF00004C
:103E700010B5002104460122FFF767FA4FF6FF73E1
:103E800063800023636010BD38B50446FEF70AF96D
:103E9000B4F902308342054604D16368013363609C
:103EA000002038BD20460EF02BF918B9012365809B
:103EB000636038BD4FF0FF3038BD38B50446FEF7BB
:103EC000F1F8B4F902308342054602D16368013348
:103ED0000EE02046FDF7D6FE40B1FDF773FD036806
:103EE000042BF6D00348A721FDF730F865800123A5
:103EF000636038BDF87E010810B50446FEF7D2F8BD
:103F0000B4F90230834202D00B48C32110E0636849
:103F1000012B02DD013B636010BD4FF6FF73638030
:103F2000002363602046FDF7FBFE18B10248D8214C
:103F3000FDF70CF810BD00BFF87E010838B5054646
:103F400008680C4600F015F8821C05EB021205EB20
:103F50000015AB6A3BB1196829B12068814202D2D1
:103F60001A469B68F6E79460E260A36003B1DC60E8
:103F700038BDB0F5800F07D203090020012B02D90C
:103F800001305B08FAE770471220704770B50546AC
:103F90000C4600294DD0FFF790FF54F8043C23F065
:103FA000004344F8043C54F8083CA4F10801CA1842
:103FB0005068002818DBC858D368104413B91D484E
:103FC00068211BE096689E6093680BB1D668DE603E
:103FD000126854F8083C134444F8083C426802F064
:103FE000004213434360024654F8043CCB1A58681D
:103FF000002816DBD96819B90E488121FCF7A6FF05
:1040000098688860996809B1D868C86054F8080C45
:10401000196801441960506800F000400143516084
:1040200019462846FFF78AFF2846BDE87040FFF78B
:1040300063BF70BD097F010870B50646D9B117315D
:1040400021F00F04FFF739FFB4F5800F03D22046AB
:10405000FFF78FFF00E0122006EB0010856A25B104
:104060002B68A34209D2AD68F9E72C463046FFF72A
:1040700043FF204670BD084670BDEB681BB9114870
:104080008421FCF763FFAA689A60AB680BB1EA6809
:10409000DA602B68181B0F280CD9291928512B44DA
:1040A0004C602C605A6802F0004202435A6030466D
:1040B000FFF744FF6B6843F000436B6005F10804B1
:1040C000D4E700BF1B7F010838B50D46FFF7B4FFEA
:1040D000044618B100212A46FFF7DDF9204638BD15
:1040E00038B5054601200C46FDF75EFC044B1B6805
:1040F0002B60C3F1005303F50033236038BD00BFCC
:10410000C6760108704700BF30BF704700230928FA
:1041100002DD01330A38FAE740EA0310704782B043
:1041200000230193019BB3F5803F06D2064B1B6829
:10413000DB0705D4019B0133F3E76FF06D0000E06E
:10414000002002B0704700BF0C28004082B000235E
:104150000193019BB3F5803F06D2064B1B689B077A
:1041600005D4019B0133F3E76FF06D0000E0002000
:1041700002B070470C28004008B5012000F0BAFCDE
:10418000024BCA221A6053221A6008BD242800403C
:10419000024BFF221A60002000F0ACBC2428004033
:1041A00013B5FFF7E9FF0D4B1A6822F020021A60E1
:1041B00000220192019AB2F5003F05D21A689206D8
:1041C00005D4019A0132F4E76FF06D0400E0002499
:1041D000FFF7DEFF204602B010BD00BF0C280040F4
:1041E0000A4B80221A6082B000220192019AB2F535
:1041F000803F05D21A68520605D4019A0132F4E7CD
:104200006FF06D0000E0002002B070470C28004005
:1042100070B5174C2368DA0512D5164A116811F4E7
:10422000805F15460CD0144B1A682AB100211A6819
:104230005868196059609047236823F480732B6095
:104240009B0513D50B4B1A6812F4005F1D460DD069
:10425000094B9A6832B100229E68D8689A60DA6089
:104260000121B047236823F400732B60002070BD48
:104270000C28004008280040501700202DE9F84F76
:104280004C4E4D4F3568012000F034FCBD4214D037
:104290004A4800214FF48032FCF7D8FC47484FF4DD
:1042A00080310022FCF7D2FC44484FF440714FF4B7
:1042B0000072FCF7CBFC414827E0404C236803F434
:1042C0004073B3F5007F25D0DFF81091DFF810813F
:1042D000D9F800B0D8F800A0204600214FF4803271
:1042E000FCF7B4FC20464FF480310022FCF7AEFC12
:1042F00020464FF440714FF40072FCF7A7FCC9F858
:1043000000B02046C8F800A0356000214FF40042FC
:10431000FCF79CFC002000F0EDFB4FF00008FFF7DD
:104320003FFF044620B108F10108B8F10A0FF6D1A9
:10433000BD42234D1ED0FFF71FFF2B685B060DD536
:10434000204A136823F0400313601F4B1F4A1A6072
:104350002B6823F080032B60002404E0FFF740FF6C
:1043600004460028ECD0FFF713FF012000F0C2FB49
:10437000376007E02B6823F440732B60144B4FF435
:1043800000321A60002000F0B5FB14B1B8F1000F44
:104390000BD10120002102460E4B00F083F90E4B99
:1043A00001221A740020BDE8F88F6FF06D00BDE89F
:1043B000F88F00BF50280040EEFECEFA7038024061
:1043C0000C2800400828004010280040FF007F0013
:1043D000143C014011420008501700200028004002
:1043E0000428004030B51D4B1D4A196812681B682F
:1043F0008B42F8D10A2102F00F05C2F3021401FB2F
:104400000454046002F4FE44250BC4F3032401FBAE
:10441000054402F47C124460140DC2F3034201FB14
:104420000422826003F00F04C3F3011201FB024275
:10443000C26003F4F852140BC2F3032201FB0422FE
:10444000013A03F47F0302611A0DC3F3034301FB36
:10445000023364334361002030BD00BF04280040B4
:10446000002800402DE9F84F07460068FFF74EFE90
:1044700081467868FFF74AFE0446B868FFF746FEB3
:104480008246F868FFF742FE064638690130FFF7BA
:104490003DFE054678696438FFF738FE0746FFF7AA
:1044A0006BFE174B1A6812F0400F98461DD0200281
:1044B00040EA0A4040EA0900124B00F07F3020F049
:1044C000FE401860280240EA0740304320F07F4059
:1044D00020F0C0005860D8F8003023F08003C8F8FE
:1044E0000030FFF75DFE834604E0FFF779FE834668
:1044F0000028DCD0FFF74CFE5846BDE8F88F00BF1F
:104500000C280040002800407FB569460FF072FB80
:104510006846FFF7A7FF07B05DF804FBF8B504464F
:1045200018B9334840F2435105E00768012F04DD14
:104530002F4840F24451FCF709FD4068FFF7E6FDC3
:104540000546A068FFF7E2FD0646E068FFF7DEFDDE
:10455000000440EA062040EA050617B1012F21D0E9
:1045600041E0244DE3692B60236A6B60FFF704FE92
:1045700021484FF488513A46FCF768FBFFF7CFFD1E
:10458000044638B91D4B1C481E6021464FF4885222
:10459000FCF75CFBFFF7FCFD002C26DA00232B6008
:1045A0006B6022E0134DE369AB60236AEB60FFF7B9
:1045B000E3FD11484FF408510022FCF747FBFFF7D9
:1045C000C5FD044638B90E4B0B481E6021464FF41A
:1045D0000852FCF73BFBFFF7DBFD002C05DA00235C
:1045E000AB60EB6001E06FF015042046F8BD00BF42
:1045F0002F7F010850170020082800401C28004089
:1046000020280040012838B504D91A4840F28C51BE
:10461000FCF79CFC184B4FF0000411D01C605C6050
:10462000FFF7AAFD15484FF488512246FCF70EFB10
:10463000FFF775FD051E19DB4FF0FF32104B10E040
:104640009C60DC60FFF798FD0C484FF4085122464F
:10465000FCF7FCFAFFF77AFD051E07DB094B4FF06C
:10466000FF321A60FFF794FD204638BDFFF790FD3A
:10467000284638BD2F7F0108501700200828004029
:104680001C28004020280040044B4FF400321A60E0
:10469000034B1B6803B1184718467047143C014090
:1046A000641700202DE9F0411C46204B80461D6810
:1046B0001C600F461646392034B11D49FDF790FAAB
:1046C0003920FCF731FC01E0FCF71CFCB8F1000FCD
:1046D0000DBF4FF4003100214FF400320022154885
:1046E000FCF7B4FA002F0DBF4FF4003100214FF456
:1046F000003200221048FCF7A9FA002E0DBF4FF43B
:10470000003100214FF4003200220C48FCF79EFAE1
:10471000002C0B480DBF4FF4003100214FF4003244
:104720000022FCF793FA2846BDE8F08164170020C8
:1047300089460008083C01400C3C0140043C014013
:10474000003C01402DE9F041437E1B4C023B012B14
:1047500007468846266803D918485421FCF7F6FB1B
:104760000DF024FB4146054638460DF097FB144BEF
:104770001B681BB10DF060FB2843C5B2D5B1114FCA
:10478000396806F1700551B1284600F01DF824681B
:10479000204670340DF096FC3C60BDE8F081246842
:1047A00020460DF08FFC284604F17001BDE8F04171
:1047B00000F073B9BDE8F081AC1A0020477F010812
:1047C000501B0020981A0020814207D0002351F886
:1047D000232040F823200133122BF8D1704738B53D
:1047E000C36A05460C462BB1836A8B4202D0114640
:1047F00000F084F8EB6A1BB92046FFF7DBFAE862A9
:10480000EB6A6BB11A1F1444C3F1040324F00704CC
:104810002C631C44AC620320FDF7C6F8002038BDB1
:104820004FF0FF3038BD000008B5EFF3108372B6CB
:104830000DF002FD024B1868703000F029F900BF3E
:10484000AC1A002008B50B4B00221A60FFF75AFC87
:10485000FCF7F2FA084B0BB110F06AF900F029F9F5
:104860000BF032FAFCF7A6F90220BDE80840FDF78C
:104870009BB800BF981A0020314B010810B50446C0
:10488000002160305822FEF706FE236B2367236960
:1048900023F00103C4F8B0304FF08073C4F8B43093
:1048A00010BD0000024B1868003018BF012070478F
:1048B000981A002070B50F4D2C680DF0BDFAC0B1EC
:1048C0000D4E3168703449B12046FFF77DFF2C68EA
:1048D000204670340DF0F6FB346070BD2D6828461C
:1048E0000DF0F0FB204605F17001BDE8704000F0CE
:1048F000D4B870BDAC1A0020981A002010B5044638
:10490000C06A18B1FEF728F90023E3620023A3620E
:1049100010BD000010B500B119B91E486321FCF7A5
:1049200015FBEFF3108472B6026E002A2DD11A4ADD
:104930001268904217D1194A12680AB9884724E0D0
:104940000166116C416651688166516CC1661449FB
:104950001164012151604FF0807151647030114633
:10496000FFF732FF11E0D0F8B0204266426F826656
:10497000D0F8B420C2660A4AC0F8B02001224267CB
:104980004FF080720166C0F8B42014F0010F00D11E
:1049900062B610BD5E7F0108AC1A0020981A002094
:1049A000A549000830B5154B1C6893B00520E56D8E
:1049B000FCF7FAFF236E1BB911486421FCF7C6FA15
:1049C00004F170016846FFF7FFFE636E1093E26E1C
:1049D000A36E11920021226E0193216613F0010F44
:1049E00000D162B620469047EFF3108372B60520DF
:1049F000E565FCF7DFFF684600F04AF8AC1A0020D6
:104A00007D7F0108C36A073121F007015BB1826A2B
:104A10008A4281BF036B5B1A511A036383BF03672A
:104A200081620433002318467047000070B5437E4E
:104A3000144D043B042B06462C6803D912484E2122
:104A4000FCF784FA0DF048FA30460DF07FF9C0B15A
:104A50000E4E3168703449B12046FFF7B5FE2C6820
:104A6000204670340DF02EFB346070BD2D68284652
:104A70000DF028FB204605F17001BDE8704000F004
:104A80000CB870BDAC1A0020957F0108981A002060
:104A900001464FF0010000DF70470A4601464FF023
:104AA000020000DF7047000008B50DF00FFB00208A
:104AB00008BD08B50A4A0B49136823F07F4343F049
:104AC00000431360084B094A1A600F20FDF788F86D
:104AD000074B07221A600F20BDE80840FCF724BAF4
:104AE00020ED00E0A94A000814E000E07FA21900D0
:104AF00010E000E010B50A4A13689BB2C3F300242B
:104B00002CB158B923F480739BB2136006E028B12E
:104B100043F480731360042000F018F8204610BDA1
:104B200000700040084A1368002823F400739BB209
:104B300014BF4FF40071002143EA0103136002D057
:104B400013681B07FCD570470470004082B0B0F5B5
:104B50007A7F0DD900230193019A44F24C139A42B3
:104B600002DC019B0133F6E7A0F57A70EFE76438C9
:104B7000642809D900230193019BB3F5D16FF6DABC
:104B8000019B0133F7E70A380A2808D9002301936B
:104B9000019BA62BF7DC019B0133F8E7013838B104
:104BA00000230193019B102BF8DC019B0133F8E7F4
:104BB00002B0704710B500F031F800F011F8002095
:104BC000014600F017F804460DF09CF9034922460F
:104BD0004C300EF0FEFC012010BD00BFAE7F01087E
:104BE00008B500F033F84FF601700021BDE8084029
:104BF0000EF074B810B500F021F9044618B9064853
:104C00006A21FCF7A3F900F0C1F9204600F002FB8D
:104C1000236A014620469847D57F010810B5074C06
:104C2000074B9C4209D054F8043B064A9342F7D9FB
:104C3000054A9342F4D29847F2E710BD48B0010804
:104C400048B001080000000848B0010873B51B49CE
:104C5000D1F8002400243F324023009420469209DA
:104C60000BF004F9031E06DA1549164A5B420320CD
:104C7000FEF75EFC1CE0144E144D1549114A0095D8
:104C800033460720FEF754FC009428463146114A6B
:104C9000012305F099FE00280DDAFCF793FE00963B
:104CA0000368019303200C49064A2B46FEF740FC9B
:104CB0004FF0FF3000E0204602B070BDB40000208D
:104CC000F47F0108E77F0108558001085A80010838
:104CD0001A800108648001086A80010800F51770D5
:104CE000704770B504460E46154652B1D0F85802CA
:104CF00008B10EF0FDFBD4F854322B60D4F85832D2
:104D00006B600023C4F85462C4F8583270BD38B5E3
:104D10000446D0F858520DF0F5F82830854208D1F5
:104D20000DF0F0F828300EF0E3FB0123C4F8543204
:104D300038BDD4F8580230B10EF0DAFBD4F858027E
:104D40000EF0A2FA07E0D4F85402002803DB012891
:104D500001D005F0AFF84FF0FF33C4F85432002310
:104D6000C4F8583238BD38B50D460446FFF7CFFFBA
:104D70002B68C4F854326B68C4F8583238BD10B58B
:104D80000446FFF7C4FF2046BDE81040FFF70CB80B
:104D90000C4608B5FFF7F3FF2046FDF78BF90EB47C
:104DA00017B5D0F85832044653B9D0F854020A491E
:104DB0000EF040FAC4F8580210B94FF0FF3006E088
:104DC00006AAD4F85802059901920EF00FFC03B020
:104DD000BDE8104003B07047E88E010873B5D0F805
:104DE000583205460E46144653B9D0F854021049BD
:104DF0000EF020FAC5F8580210B94FF0FF3015E058
:104E0000224630460121D5F858320EF019FB041E17
:104E10000BDAD5F85452FCF7D5FD03680093032054
:104E20000449054A2B46FEF783FB204602B070BDBD
:104E3000E88E0108A38001089280010810B54FF4A4
:104E40002770FEF7BDFF0446B8B10D4B03600D4B54
:104E500083600D4BC3600D4B03610D4B43610D4BE4
:104E600003620D4B83610D4BC3610123C0F85432C3
:104E70000DF048F82830C4F85802204610BD00BF95
:104E8000A14E00087F4D0008DD4D00089F4D000831
:104E9000DD4C0008914D0008E34C0008674D000808
:104EA00008B5FFF7CBFF08BD2DE9F743894611464A
:104EB000044600F093F80646002857D06369204660
:104EC0009847074600284AD030462B49D4F82C8210
:104ED0000EF0BFF9C4F82C0278B92569FCF772FD11
:104EE000036800932549264B4A462046A84730468A
:104EF00000F0CAF8C4F82C8238E04FF0FF350DF00E
:104F000001F828300EF0F4FAD4F82C020EF013FA5F
:104F100000239842C4F83002A4F834320ADAD4F8F4
:104F20001090FCF74FFD0368009320461349154A83
:104F3000154BC84738464021D4F82C220EF01FFAF2
:104F400030B12046394601F017F805460028D6D082
:104F5000D4F82C020EF098F9C4F82C8201E04FF03E
:104F6000FF35304600F090F8284601E04FF0FF3062
:104F700003B0BDE8F08300BFE28E010802820108A1
:104F8000C7800108CD800108D280010838B50446E9
:104F9000FDF7BCF9074B1D7801221A70FDF7CEF919
:104FA00035B920460449054ABDE83840FFF77CBFC3
:104FB000002038BD68170020C47B0108D880010894
:104FC00008B504480CF064FB034B002808BF1846E2
:104FD00008BD00BFEA800108E8800108F8B507466F
:104FE0000C4609B10B780BB920480CE02F2B01D1EE
:104FF000084608E0FFF7E4FF1D49064620460EF08C
:1050000019FC20B93046BDE8F8400EF02FBC304600
:1050100018490EF00FFC60B92046FEF74CFA02303A
:10502000FEF7C8FE0546B8B1134922460EF014F843
:1050300019E03046FEF73FFA05462046FEF73BFAF8
:1050400028440230FEF7B6FE054628B10B49324629
:1050500023460EF001F806E03B690949094A384643
:1050600098470020F8BD2846F8BD00BFE880010839
:105070000D8101088CA50108F7800108F580010861
:1050800075820108FB80010808B1FEF78DBE7047EC
:105090002DE9F341012906461746556803DC002433
:1050A000254625482AE0284624490EF0C3FB00285F
:1050B000F5D0284622490EF0BDFB044650B92148E0
:1050C0000CF0E6FA1C4B002808BF18460EF0CEFB89
:1050D000054613E028461C490EF0ACFB044638B9DF
:1050E000FFF76EFF0EF0C2FB05460DF03FFE05E038
:1050F00029463046FFF772FF002504460EF06EFE8B
:10510000804668B1D6F810803F68FCF75BFC036806
:10511000009330460D490E4B3A46C0474FF0FF38DA
:1051200015B12846FEF740FE14B12046FFF7ACFF4C
:10513000404602B0BDE8F081E88001080A8101081C
:10514000468B0108EE8001080C81010802820108EB
:105150000F810108F8B505460E4617460124B442F2
:1051600028462B6905DA57F824200449984701346A
:10517000F5E7034998470020F8BD00BF15810108F5
:10518000FD86010838B504460569FFF719FF034994
:1051900002462046A847002038BD00BF9F86010870
:1051A000F7B505469068144600F0A3F901220146C0
:1051B00060680CF091FA061E0ADA24682F69FCF781
:1051C00001FC0368009328460349044B2246B84774
:1051D000304603B0F0BD00BF028201081B81010808
:1051E000F7B50446506815460CF0D2FA061E0ADAE6
:1051F0002D682769FCF7E6FB036800932046034906
:10520000034B2A46B847304603B0F0BD028201087E
:105210001981010873B5044618B91B485521FBF7DD
:1052200095FE1A48D4F858120EF0ADF9D4F8580289
:105230000EF05EF9D4F8581215480EF0A4F9D4F81F
:1052400058020EF055F90CF05DFE06460CF05AFEC1
:1052500004F5177500F1280340212846321D00F09F
:10526000B1F9013004D02046294600F085FEDDE783
:1052700001250095D4F858020649074A074B0EF05D
:10528000A8F9284602B070BD2281010823830108D5
:105290001D83010802820108308101083C81010858
:1052A0002DE9F34704460E461046012104F0B5FEF1
:1052B000B0F1000809DA2569FCF784FB0368009364
:1052C00020463449344B324611E04FF40070FEF76B
:1052D00071FD074678B9404604F0ECFD2569FCF7FE
:1052E00071FB036800932B492C4B20463246A8479C
:1052F0004FF0FF304AE00025404639464FF4007237
:1053000004F00CFFB0F1000A13DAFCF75BFB036852
:105310002569042B04D1204621493246A84705E0DF
:10532000009320461B491F4B3246A8474FF0FF35DC
:1053300021E020D04FF00009E3682046394652466C
:105340009847002813DAFCF73DFB03682569042B16
:1053500006D1204612493246A8474FF0FF35CBE729
:10536000009320460B49104B3246A847F5E781448D
:10537000D145E1DBC0E723690C4920469847404608
:1053800004F098FD3846FEF70FFD284602B0BDE850
:10539000F08700BF02820108C8800108458101082A
:1053A00055820108919E01084C810108FD86010883
:1053B0002DE9F74F06468A46104601211F46DDF8C3
:1053C000309004F02AFEB0F100080CDA3469FCF7E2
:1053D000F9FA0368009330462149224B5246A04710
:1053E0004FF0FF3038E000243C7009F1FF35BB4638
:1053F000404659462A4604F091FE002814DAFCF78C
:10540000E1FA0368002B02DC1748F82112E0042BB4
:1054100017D03469FCF7D6FA036800933046104978
:10542000124B5246A0470FE011D0A84204D90E48B3
:1054300040F21111FBF78AFD044400233B558344DD
:105440002D1AB9F1000FD3D14FF0FF3400E004461C
:10545000404604F02FFD204603B0BDE8F08F00BFAA
:1054600002820108C880010852810108919E01084A
:105470002DE9F34106461046884614461F4605F0BE
:105480004FF9054648B90094304634690E490F4B30
:105490004246A0474FF0FF3012E0284605F0C2F91F
:1054A000024640B130462146089BB8470028F4DA4E
:1054B0004FF0FF3400E00446284605F0FFF8204690
:1054C00002B0BDE8F08100BF8D8201086081010853
:1054D00010B50446FDF7EFFF01382044031B002BF5
:1054E00006DD03782F2B03D1002300F80139F5E7FF
:1054F00010BD10B5044610F8013B2BB92046FDF74E
:10550000DAFF013820440BE0202BF3D0093B042BB9
:10551000F4D8EFE70378202B06D1002300F80139F7
:10552000031B002BF6DA02E0093B042BF5D92046D9
:1055300010BD00BF10B508B101B11AB90448B621B9
:10554000FBF704FD0069BDE8104004F0A2BF00BFF6
:105550006A81010813B504468DF8071018B9094887
:105560009621FBF7F3FC20690DF10701012204F0FD
:1055700090FF002803DAFCF725FA0368042BF2D029
:1055800002B010BD6A81010813B5044648B90C4841
:105590005E21FBF7DBFC0FDAFCF714FA0368042B3F
:1055A00007D1E0680DF10701012204F0B7FD0028E2
:1055B000F1D14FF0FF3001E09DF8070002B010BDBF
:1055C0006A81010830B5054687B00C4602B11BB9A7
:1055D0000A48E321FBF7BAFC12680492084A0292D7
:1055E0000849094A019103921B68059301A82946BD
:1055F000224602F0B5FE07B030BD00BF6A81010847
:1056000055550008895500083555000890F837327F
:1056100000EBC30393F83C329A09032A02D113F03A
:10562000010310D090F83832184490F839028307FB
:105630000BD48309022B02D0032B01D007E0C04317
:1056400000F00100704718467047002070470120A5
:10565000704770B5056895F82532044613B1406867
:1056600004F028FCAB682846984704F1080600259A
:10567000A3689D4205DA56F8040FFEF795FB013545
:10568000F6E72046BDE87040FEF78EBB70B50446D5
:1056900025460C4E55F80C3F0B4932460320FDF7CA
:1056A00047FFA16820682A4600F0ECFD0749E3683F
:1056B000054632460320FDF73BFF2046FFF7C9FFB2
:1056C000284670BD758101083583010840830108B3
:1056D00010B590F83722033200EBC20292F8243260
:1056E0009B09012B0CD1B1FA81F1002380F82632FD
:1056F00092F82402490961F3000082F824021FE0B5
:10570000022B0CD1002380F82632C91A92F82442C9
:1057100018BF012161F3000482F8244210E090F8E0
:105720003822024492F839329B09012B0AD1002316
:1057300080F8263292F8390261F3000082F83902CB
:10574000184610BD80F82612081C18BF01204042E0
:1057500010BD2DE9F0470C6880460E46217825469D
:10576000013421B928782C4638B9BDE8F0872B4898
:10577000FEF7C0FA0028F1D1F4E73E280BD16B7890
:105780003E2B0BBF02350135356035600CBF244818
:105790002448BDE8F087232803D135600020BDE808
:1057A000F087222808BF6C1C04F101070CBFDFF84A
:1057B0008490DFF86890BA469AF8001055460AF1CE
:1057C000010A31B92A782B464AB1002201351A70F4
:1057D00005E04846FEF78EFA0028EDD0F2E7356086
:1057E0002378242B17D138460F490EF023F848B9F7
:1057F0000E4B98F826029A1E002814BF1846104631
:10580000BDE8F08738460BF043FF094B002808BF7E
:105810001846BDE8F0872046BDE8F0877F81010883
:1058200085810108838101088D8101088A81010831
:105830008C810108EDA301082DE9F04F97B016AF58
:105840000DF12C0804460D462C2200214046FDF7A0
:1058500022FE47F8405D002384F8243284F8253284
:1058600020463946FFF775FF0546002800F0D7812E
:10587000C0490DF0DFFFC0495FFA80FA28460DF0FD
:10588000D9FFBAF1000F02D010F0FF0F5AD1204615
:105890003946FFF75EFF814620B92369B749B84A08
:1058A0002046D3E094F838B204EB0B0393F8393276
:1058B0009B09012B00F0C68094F8376204EBC60305
:1058C00093F83C32C3F38113033303F00303012B3A
:1058D00040F2B880D4F82C32002B00F0B380D4F81A
:1058E0003032002BC0F2AE80012E03D92369A549C6
:1058F0002046AAE0BAF1000F204606F101060CBFCF
:1059000001250225F6B20393FFF780FEB4F83412A6
:10591000039B84F83762F21C194404EBC202002393
:1059200084F8363292F8243204EBC60665F3871306
:1059300060F3000382F824324D4686F83DB2C6F883
:10594000401294E0284690490DF074FFF0B93946B2
:105950002046FFF7FEFE94F83732033304EBC3030F
:10596000054693F82412C1F38112033202F00302B8
:10597000012A04D923698549834A204666E041F01B
:10598000C00183F82412002871D149E128468049DA
:105990000DF050FF002848D120463946FFF7D9FEC8
:1059A000024618B123697549204611E094F8370280
:1059B000C31C04EBC30393F824128D09032D03D0F9
:1059C00023697249204603E020B9236971492046C2
:1059D0006F4A3BE0C80715D5D4F82C02D3F828123B
:1059E0000DF08CFC002809DA2569FBF7EBFF036852
:1059F000009320466849664A684BA847012384F80B
:105A0000363203E041F0010183F8241294F8373272
:105A1000DA1C04EBC202013B92F824126FF38711E7
:105A200082F8241284F83732F9E094F8373204EB24
:105A3000C30393F83C32C3F38113033303F003032E
:105A4000012B14D82369514920462A46984794F8D7
:105A50003C3203F03F03002243F0010384F8362276
:105A600084F8372284F83C32C4F84022D1E028463A
:105A700043490DF0DFFE814690BB20463946FFF7D3
:105A800068FE054618B923693C492046A3E094F80E
:105A90003862A31993F839329B09012B03D123698A
:105AA0003A49204697E0012E03D92369354920461B
:105AB00091E00136F6B22046FFF7A8FD84F838627F
:105AC0002644012296F83932B0FA80F062F3871347
:105AD000400960F3410369F3000386F839329FE01F
